{
  "_format": "hh-sol-artifact-1",
  "contractName": "Game",
  "sourceName": "contracts/Game.sol",
  "abi": [
    {
      "inputs": [
        {
          "internalType": "contract IShips",
          "name": "_ships",
          "type": "address"
        }
      ],
      "stateMutability": "nonpayable",
      "type": "constructor"
    },
    {
      "anonymous": false,
      "inputs": [
        {
          "indexed": true,
          "internalType": "address",
          "name": "previousOwner",
          "type": "address"
        },
        {
          "indexed": true,
          "internalType": "address",
          "name": "newOwner",
          "type": "address"
        }
      ],
      "name": "OwnershipTransferred",
      "type": "event"
    },
    {
      "anonymous": false,
      "inputs": [
        {
          "indexed": true,
          "internalType": "uint256",
          "name": "gameId",
          "type": "uint256"
        },
        {
          "indexed": true,
          "internalType": "address",
          "name": "player",
          "type": "address"
        }
      ],
      "name": "TurnTaken",
      "type": "event"
    },
    {
      "inputs": [
        {
          "internalType": "uint256",
          "name": "matchId",
          "type": "uint256"
        }
      ],
      "name": "endMatch",
      "outputs": [],
      "stateMutability": "nonpayable",
      "type": "function"
    },
    {
      "inputs": [
        {
          "internalType": "uint256",
          "name": "matchId",
          "type": "uint256"
        }
      ],
      "name": "getMatch",
      "outputs": [
        {
          "components": [
            {
              "internalType": "address",
              "name": "player1",
              "type": "address"
            },
            {
              "internalType": "uint256[3]",
              "name": "team1",
              "type": "uint256[3]"
            },
            {
              "internalType": "address",
              "name": "player2",
              "type": "address"
            },
            {
              "internalType": "uint256[3]",
              "name": "team2",
              "type": "uint256[3]"
            },
            {
              "internalType": "uint8",
              "name": "turn",
              "type": "uint8"
            },
            {
              "internalType": "uint32",
              "name": "lastMoveAt",
              "type": "uint32"
            }
          ],
          "internalType": "struct Game.Match",
          "name": "",
          "type": "tuple"
        }
      ],
      "stateMutability": "view",
      "type": "function"
    },
    {
      "inputs": [],
      "name": "nextGameId",
      "outputs": [
        {
          "internalType": "uint256",
          "name": "",
          "type": "uint256"
        }
      ],
      "stateMutability": "view",
      "type": "function"
    },
    {
      "inputs": [
        {
          "internalType": "address",
          "name": "",
          "type": "address"
        },
        {
          "internalType": "address",
          "name": "",
          "type": "address"
        },
        {
          "internalType": "uint256",
          "name": "",
          "type": "uint256"
        },
        {
          "internalType": "bytes",
          "name": "",
          "type": "bytes"
        }
      ],
      "name": "onERC721Received",
      "outputs": [
        {
          "internalType": "bytes4",
          "name": "",
          "type": "bytes4"
        }
      ],
      "stateMutability": "pure",
      "type": "function"
    },
    {
      "inputs": [],
      "name": "owner",
      "outputs": [
        {
          "internalType": "address",
          "name": "",
          "type": "address"
        }
      ],
      "stateMutability": "view",
      "type": "function"
    },
    {
      "inputs": [],
      "name": "playerWaiting",
      "outputs": [
        {
          "internalType": "address",
          "name": "",
          "type": "address"
        }
      ],
      "stateMutability": "view",
      "type": "function"
    },
    {
      "inputs": [
        {
          "internalType": "uint256[3]",
          "name": "shipsIds",
          "type": "uint256[3]"
        }
      ],
      "name": "register",
      "outputs": [],
      "stateMutability": "nonpayable",
      "type": "function"
    },
    {
      "inputs": [],
      "name": "renounceOwnership",
      "outputs": [],
      "stateMutability": "nonpayable",
      "type": "function"
    },
    {
      "inputs": [
        {
          "internalType": "contract IShips",
          "name": "_ships",
          "type": "address"
        }
      ],
      "name": "setShips",
      "outputs": [],
      "stateMutability": "nonpayable",
      "type": "function"
    },
    {
      "inputs": [],
      "name": "ships",
      "outputs": [
        {
          "internalType": "contract IShips",
          "name": "",
          "type": "address"
        }
      ],
      "stateMutability": "view",
      "type": "function"
    },
    {
      "inputs": [
        {
          "internalType": "uint256",
          "name": "matchId",
          "type": "uint256"
        },
        {
          "components": [
            {
              "internalType": "uint256",
              "name": "fromShip",
              "type": "uint256"
            },
            {
              "internalType": "uint256",
              "name": "toShip",
              "type": "uint256"
            },
            {
              "internalType": "uint256",
              "name": "action",
              "type": "uint256"
            }
          ],
          "internalType": "struct Game.Action[3]",
          "name": "actions",
          "type": "tuple[3]"
        }
      ],
      "name": "takeTurn",
      "outputs": [],
      "stateMutability": "nonpayable",
      "type": "function"
    },
    {
      "inputs": [
        {
          "internalType": "uint256",
          "name": "",
          "type": "uint256"
        }
      ],
      "name": "teamWaiting",
      "outputs": [
        {
          "internalType": "uint256",
          "name": "",
          "type": "uint256"
        }
      ],
      "stateMutability": "view",
      "type": "function"
    },
    {
      "inputs": [
        {
          "internalType": "address",
          "name": "newOwner",
          "type": "address"
        }
      ],
      "name": "transferOwnership",
      "outputs": [],
      "stateMutability": "nonpayable",
      "type": "function"
    }
  ],
  "bytecode": "0x60806040523480156200001157600080fd5b50604051620050d3380380620050d38339818101604052810190620000379190620001f1565b620000576200004b620000a760201b60201c565b620000af60201b60201c565b80600160006101000a81548173ffffffffffffffffffffffffffffffffffffffff021916908373ffffffffffffffffffffffffffffffffffffffff16021790555060016002819055505062000223565b600033905090565b60008060009054906101000a900473ffffffffffffffffffffffffffffffffffffffff169050816000806101000a81548173ffffffffffffffffffffffffffffffffffffffff021916908373ffffffffffffffffffffffffffffffffffffffff1602179055508173ffffffffffffffffffffffffffffffffffffffff168173ffffffffffffffffffffffffffffffffffffffff167f8be0079c531659141344cd1fd0a4f28419497f9722a3daafe3b4186f6b6457e060405160405180910390a35050565b600080fd5b600073ffffffffffffffffffffffffffffffffffffffff82169050919050565b6000620001a58262000178565b9050919050565b6000620001b98262000198565b9050919050565b620001cb81620001ac565b8114620001d757600080fd5b50565b600081519050620001eb81620001c0565b92915050565b6000602082840312156200020a576200020962000173565b5b60006200021a84828501620001da565b91505092915050565b614ea080620002336000396000f3fe608060405234801561001057600080fd5b50600436106100cf5760003560e01c806373e36af71161008c578063b135bbb011610066578063b135bbb0146101fe578063bbf8218a1461021c578063c9b435a61461023a578063f2fde38b14610256576100cf565b806373e36af7146101a85780638da5cb5b146101c4578063a3df2d2a146101e2576100cf565b80630eaa8532146100d4578063150b7a02146100f057806318bca18d146101205780632629b1fa146101505780633d092b3d1461016e578063715018a61461019e575b600080fd5b6100ee60048036038101906100e99190613ce1565b610272565b005b61010a60048036038101906101059190613dd1565b6105f6565b6040516101179190613e94565b60405180910390f35b61013a60048036038101906101359190613ce1565b61060b565b6040516101479190613ebe565b60405180910390f35b610158610626565b6040516101659190613ee8565b60405180910390f35b61018860048036038101906101839190613ce1565b61064c565b6040516101959190614076565b60405180910390f35b6101a66107f2565b005b6101c260048036038101906101bd91906140d0565b610806565b005b6101cc610852565b6040516101d99190613ee8565b60405180910390f35b6101fc60048036038101906101f7919061411f565b61087b565b005b6102066117c7565b6040516102139190613ebe565b60405180910390f35b6102246117cd565b60405161023191906141bf565b60405180910390f35b610254600480360381019061024f91906141fc565b6117f3565b005b610270600480360381019061026b9190614229565b611ce7565b005b60006003600083815260200190815260200160002090506000816001016003806020026040519081016040528092919082600380156102c6576020028201915b8154815260200190600101908083116102b2575b5050505050905060008260050160038060200260405190810160405280929190826003801561030a576020028201915b8154815260200190600101908083116102f6575b5050505050905061031a82611d6a565b8061032a575061032981611d6a565b5b610369576040517f08c379a0000000000000000000000000000000000000000000000000000000008152600401610360906142b3565b60405180910390fd5b60005b600381101561045457600160009054906101000a900473ffffffffffffffffffffffffffffffffffffffff1673ffffffffffffffffffffffffffffffffffffffff166342842e0e308660000160009054906101000a900473ffffffffffffffffffffffffffffffffffffffff168760010185600381106103ef576103ee6142d3565b5b01546040518463ffffffff1660e01b815260040161040f93929190614302565b600060405180830381600087803b15801561042957600080fd5b505af115801561043d573d6000803e3d6000fd5b50505050808061044c90614368565b91505061036c565b5060005b600381101561054057600160009054906101000a900473ffffffffffffffffffffffffffffffffffffffff1673ffffffffffffffffffffffffffffffffffffffff166342842e0e308660040160009054906101000a900473ffffffffffffffffffffffffffffffffffffffff168760050185600381106104db576104da6142d3565b5b01546040518463ffffffff1660e01b81526004016104fb93929190614302565b600060405180830381600087803b15801561051557600080fd5b505af1158015610529573d6000803e3d6000fd5b50505050808061053890614368565b915050610458565b5060036000858152602001908152602001600020600080820160006101000a81549073ffffffffffffffffffffffffffffffffffffffff021916905560018201600061058c9190613b8c565b6004820160006101000a81549073ffffffffffffffffffffffffffffffffffffffff02191690556005820160006105c39190613b8c565b6008820160006101000a81549060ff02191690556008820160016101000a81549063ffffffff0219169055505050505050565b600063150b7a0260e01b905095945050505050565b6005816003811061061b57600080fd5b016000915090505481565b600460009054906101000a900473ffffffffffffffffffffffffffffffffffffffff1681565b610654613ba1565b600360008381526020019081526020016000206040518060c00160405290816000820160009054906101000a900473ffffffffffffffffffffffffffffffffffffffff1673ffffffffffffffffffffffffffffffffffffffff1673ffffffffffffffffffffffffffffffffffffffff16815260200160018201600380602002604051908101604052809291908260038015610704576020028201915b8154815260200190600101908083116106f0575b505050505081526020016004820160009054906101000a900473ffffffffffffffffffffffffffffffffffffffff1673ffffffffffffffffffffffffffffffffffffffff1673ffffffffffffffffffffffffffffffffffffffff1681526020016005820160038060200260405190810160405280929190826003801561079f576020028201915b81548152602001906001019080831161078b575b505050505081526020016008820160009054906101000a900460ff1660ff1660ff1681526020016008820160019054906101000a900463ffffffff1663ffffffff1663ffffffff16815250509050919050565b6107fa611e64565b6108046000611ee2565b565b61080e611e64565b80600160006101000a81548173ffffffffffffffffffffffffffffffffffffffff021916908373ffffffffffffffffffffffffffffffffffffffff16021790555050565b60008060009054906101000a900473ffffffffffffffffffffffffffffffffffffffff16905090565b600060036000848152602001908152602001600020905060b48160080160019054906101000a900463ffffffff16426108b491906143b0565b63ffffffff16116109f0578060000160009054906101000a900473ffffffffffffffffffffffffffffffffffffffff1673ffffffffffffffffffffffffffffffffffffffff163373ffffffffffffffffffffffffffffffffffffffff16148015610932575060018160080160009054906101000a900460ff1660ff16145b806109ac57508060040160009054906101000a900473ffffffffffffffffffffffffffffffffffffffff1673ffffffffffffffffffffffffffffffffffffffff163373ffffffffffffffffffffffffffffffffffffffff161480156109ab575060028160080160009054906101000a900460ff1660ff16145b5b6109eb576040517f08c379a00000000000000000000000000000000000000000000000000000000081526004016109e290614434565b60405180910390fd5b610c48565b600260b46109fe9190614454565b8160080160019054906101000a900463ffffffff1642610a1e91906143b0565b63ffffffff1611610b5a578060000160009054906101000a900473ffffffffffffffffffffffffffffffffffffffff1673ffffffffffffffffffffffffffffffffffffffff163373ffffffffffffffffffffffffffffffffffffffff16148015610a9c575060028160080160009054906101000a900460ff1660ff16145b80610b1657508060040160009054906101000a900473ffffffffffffffffffffffffffffffffffffffff1673ffffffffffffffffffffffffffffffffffffffff163373ffffffffffffffffffffffffffffffffffffffff16148015610b15575060018160080160009054906101000a900460ff1660ff16145b5b610b55576040517f08c379a0000000000000000000000000000000000000000000000000000000008152600401610b4c90614434565b60405180910390fd5b610c47565b8060000160009054906101000a900473ffffffffffffffffffffffffffffffffffffffff1673ffffffffffffffffffffffffffffffffffffffff163373ffffffffffffffffffffffffffffffffffffffff161480610c0757508060040160009054906101000a900473ffffffffffffffffffffffffffffffffffffffff1673ffffffffffffffffffffffffffffffffffffffff163373ffffffffffffffffffffffffffffffffffffffff16145b610c46576040517f08c379a0000000000000000000000000000000000000000000000000000000008152600401610c3d906144e2565b60405180910390fd5b5b5b600080610c53613c18565b610c5b613c18565b600160028660080160009054906101000a900460ff16610c7b9190614531565b60ff1603610d5a578460000160009054906101000a900473ffffffffffffffffffffffffffffffffffffffff16935084600101600380602002604051908101604052809291908260038015610ce5576020028201915b815481526020019060010190808311610cd1575b505050505091508460040160009054906101000a900473ffffffffffffffffffffffffffffffffffffffff16925084600501600380602002604051908101604052809291908260038015610d4e576020028201915b815481526020019060010190808311610d3a575b50505050509050610e2d565b8460040160009054906101000a900473ffffffffffffffffffffffffffffffffffffffff16935084600501600380602002604051908101604052809291908260038015610dbc576020028201915b815481526020019060010190808311610da8575b505050505091508460000160009054906101000a900473ffffffffffffffffffffffffffffffffffffffff16925084600101600380602002604051908101604052809291908260038015610e25576020028201915b815481526020019060010190808311610e11575b505050505090505b60005b60038110156116f8576000600182610e489190614562565b90505b6003811015610edd57878160038110610e6757610e666142d3565b5b6060020160000135888360038110610e8257610e816142d3565b5b606002016000013503610eca576040517f08c379a0000000000000000000000000000000000000000000000000000000008152600401610ec190614608565b60405180910390fd5b8080610ed590614368565b915050610e4b565b50610f02878260038110610ef457610ef36142d3565b5b606002016000013584611fa6565b610f41576040517f08c379a0000000000000000000000000000000000000000000000000000000008152600401610f389061469a565b60405180910390fd5b610f65878260038110610f5757610f566142d3565b5b606002016020013583611fa6565b610fa4576040517f08c379a0000000000000000000000000000000000000000000000000000000008152600401610f9b9061472c565b60405180910390fd5b6001878260038110610fb957610fb86142d3565b5b606002016040013503610ffb57610ff6878260038110610fdc57610fdb6142d3565b5b60600201803603810190610ff09190614846565b89611ffe565b6116e5565b60028782600381106110105761100f6142d3565b5b606002016040013503611326576000600160009054906101000a900473ffffffffffffffffffffffffffffffffffffffff1673ffffffffffffffffffffffffffffffffffffffff16634025b22d8984600381106110705761106f6142d3565b5b60600201600001356040518263ffffffff1660e01b81526004016110949190613ebe565b600060405180830381865afa1580156110b1573d6000803e3d6000fd5b505050506040513d6000823e3d601f19601f820116820180604052508101906110da9190614a76565b905060018160a001510361111c576111178883600381106110fe576110fd6142d3565b5b606002018036038101906111129190614846565b612309565b611320565b60028160a001510361115c5761115788836003811061113e5761113d6142d3565b5b606002018036038101906111529190614846565b6125e8565b61131f565b60038160a001510361119c5761119788836003811061117e5761117d6142d3565b5b606002018036038101906111929190614846565b6128c7565b61131e565b60048160a00151036111dc576111d78883600381106111be576111bd6142d3565b5b606002018036038101906111d29190614846565b612ba6565b61131d565b60058160a001510361121c576112178883600381106111fe576111fd6142d3565b5b606002018036038101906112129190614846565b612e85565b61131c565b60068160a001510361125c5761125788836003811061123e5761123d6142d3565b5b606002018036038101906112529190614846565b61321d565b61131b565b60078160a001510361129d5761129888836003811061127e5761127d6142d3565b5b606002018036038101906112929190614846565b8a6135b5565b61131a565b60088160a00151036112de576112d98883600381106112bf576112be6142d3565b5b606002018036038101906112d39190614846565b8a613887565b611319565b6040517f08c379a000000000000000000000000000000000000000000000000000000000815260040161131090614b0b565b60405180910390fd5b5b5b5b5b5b5b5b506116e4565b600387826003811061133b5761133a6142d3565b5b606002016040013503611651576000600160009054906101000a900473ffffffffffffffffffffffffffffffffffffffff1673ffffffffffffffffffffffffffffffffffffffff16634025b22d89846003811061139b5761139a6142d3565b5b60600201600001356040518263ffffffff1660e01b81526004016113bf9190613ebe565b600060405180830381865afa1580156113dc573d6000803e3d6000fd5b505050506040513d6000823e3d601f19601f820116820180604052508101906114059190614a76565b905060018160c001510361144757611442888360038110611429576114286142d3565b5b6060020180360381019061143d9190614846565b612309565b61164b565b60028160c001510361148757611482888360038110611469576114686142d3565b5b6060020180360381019061147d9190614846565b6125e8565b61164a565b60038160c00151036114c7576114c28883600381106114a9576114a86142d3565b5b606002018036038101906114bd9190614846565b6128c7565b611649565b60048160c0015103611507576115028883600381106114e9576114e86142d3565b5b606002018036038101906114fd9190614846565b612ba6565b611648565b60058160c001510361154757611542888360038110611529576115286142d3565b5b6060020180360381019061153d9190614846565b612e85565b611647565b60068160c001510361158757611582888360038110611569576115686142d3565b5b6060020180360381019061157d9190614846565b61321d565b611646565b60078160c00151036115c8576115c38883600381106115a9576115a86142d3565b5b606002018036038101906115bd9190614846565b8a6135b5565b611645565b60088160c0015103611609576116048883600381106115ea576115e96142d3565b5b606002018036038101906115fe9190614846565b8a613887565b611644565b6040517f08c379a000000000000000000000000000000000000000000000000000000000815260040161163b90614b77565b60405180910390fd5b5b5b5b5b5b5b5b506116e3565b6004878260038110611666576116656142d3565b5b6060020160400135036116a7576116a2878260038110611689576116886142d3565b5b6060020180360381019061169d9190614846565b613a34565b6116e2565b6040517f08c379a00000000000000000000000000000000000000000000000000000000081526004016116d990614be3565b60405180910390fd5b5b5b5b80806116f090614368565b915050610e30565b50428560080160016101000a81548163ffffffff021916908363ffffffff16021790555060018560080160009054906101000a900460ff1660ff160361175b5760028560080160006101000a81548160ff021916908360ff16021790555061177a565b60018560080160006101000a81548160ff021916908360ff1602179055505b3373ffffffffffffffffffffffffffffffffffffffff16877f2c4083a25a8c487ae6b5e72a6a15a7de139a2022ee3aceb857cdcc04822b21d360405160405180910390a350505050505050565b60025481565b600160009054906101000a900473ffffffffffffffffffffffffffffffffffffffff1681565b60005b60038110156118ba57600160009054906101000a900473ffffffffffffffffffffffffffffffffffffffff1673ffffffffffffffffffffffffffffffffffffffff166342842e0e3330858560038110611852576118516142d3565b5b60200201356040518463ffffffff1660e01b815260040161187593929190614302565b600060405180830381600087803b15801561188f57600080fd5b505af11580156118a3573d6000803e3d6000fd5b5050505080806118b290614368565b9150506117f6565b50600073ffffffffffffffffffffffffffffffffffffffff16600460009054906101000a900473ffffffffffffffffffffffffffffffffffffffff1673ffffffffffffffffffffffffffffffffffffffff16036119f05733600460006101000a81548173ffffffffffffffffffffffffffffffffffffffff021916908373ffffffffffffffffffffffffffffffffffffffff16021790555080600060038110611966576119656142d3565b5b602002013560056000600381106119805761197f6142d3565b5b018190555080600160038110611999576119986142d3565b5b602002013560056001600381106119b3576119b26142d3565b5b0181905550806002600381106119cc576119cb6142d3565b5b602002013560056002600381106119e6576119e56142d3565b5b0181905550611ce4565b6119f8613c18565b81600060038110611a0c57611a0b6142d3565b5b602002013581600060038110611a2557611a246142d3565b5b60200201818152505081600160038110611a4257611a416142d3565b5b602002013581600160038110611a5b57611a5a6142d3565b5b60200201818152505081600260038110611a7857611a776142d3565b5b602002013581600260038110611a9157611a906142d3565b5b6020020181815250506040518060c00160405280600460009054906101000a900473ffffffffffffffffffffffffffffffffffffffff1673ffffffffffffffffffffffffffffffffffffffff1681526020016005600380602002604051908101604052809291908260038015611b1c576020028201915b815481526020019060010190808311611b08575b505050505081526020013373ffffffffffffffffffffffffffffffffffffffff168152602001828152602001600160ff1681526020014263ffffffff1681525060036000600254815260200190815260200160002060008201518160000160006101000a81548173ffffffffffffffffffffffffffffffffffffffff021916908373ffffffffffffffffffffffffffffffffffffffff160217905550602082015181600101906003611bcf929190613c3a565b5060408201518160040160006101000a81548173ffffffffffffffffffffffffffffffffffffffff021916908373ffffffffffffffffffffffffffffffffffffffff160217905550606082015181600501906003611c2e929190613c3a565b5060808201518160080160006101000a81548160ff021916908360ff16021790555060a08201518160080160016101000a81548163ffffffff021916908363ffffffff16021790555090505060026000815480929190611c8d90614368565b91905055506000600460006101000a81548173ffffffffffffffffffffffffffffffffffffffff021916908373ffffffffffffffffffffffffffffffffffffffff16021790555060056000611ce29190613b8c565b505b50565b611cef611e64565b600073ffffffffffffffffffffffffffffffffffffffff168173ffffffffffffffffffffffffffffffffffffffff1603611d5e576040517f08c379a0000000000000000000000000000000000000000000000000000000008152600401611d5590614c75565b60405180910390fd5b611d6781611ee2565b50565b600080600090505b6003811015611e5957600160009054906101000a900473ffffffffffffffffffffffffffffffffffffffff1673ffffffffffffffffffffffffffffffffffffffff16634025b22d848360038110611dcc57611dcb6142d3565b5b60200201516040518263ffffffff1660e01b8152600401611ded9190613ebe565b600060405180830381865afa158015611e0a573d6000803e3d6000fd5b505050506040513d6000823e3d601f19601f82011682018060405250810190611e339190614a76565b60e0015115611e46576000915050611e5f565b8080611e5190614368565b915050611d72565b50600190505b919050565b611e6c613b84565b73ffffffffffffffffffffffffffffffffffffffff16611e8a610852565b73ffffffffffffffffffffffffffffffffffffffff1614611ee0576040517f08c379a0000000000000000000000000000000000000000000000000000000008152600401611ed790614ce1565b60405180910390fd5b565b60008060009054906101000a900473ffffffffffffffffffffffffffffffffffffffff169050816000806101000a81548173ffffffffffffffffffffffffffffffffffffffff021916908373ffffffffffffffffffffffffffffffffffffffff1602179055508173ffffffffffffffffffffffffffffffffffffffff168173ffffffffffffffffffffffffffffffffffffffff167f8be0079c531659141344cd1fd0a4f28419497f9722a3daafe3b4186f6b6457e060405160405180910390a35050565b600080600090505b6003811015611ff25783838260038110611fcb57611fca6142d3565b5b602002015103611fdf576001915050611ff8565b8080611fea90614368565b915050611fae565b50600090505b92915050565b6000600160009054906101000a900473ffffffffffffffffffffffffffffffffffffffff1673ffffffffffffffffffffffffffffffffffffffff16634025b22d84600001516040518263ffffffff1660e01b815260040161205f9190613ebe565b600060405180830381865afa15801561207c573d6000803e3d6000fd5b505050506040513d6000823e3d601f19601f820116820180604052508101906120a59190614a76565b90506000600160009054906101000a900473ffffffffffffffffffffffffffffffffffffffff1673ffffffffffffffffffffffffffffffffffffffff16634025b22d85602001516040518263ffffffff1660e01b81526004016121089190613ebe565b600060405180830381865afa158015612125573d6000803e3d6000fd5b505050506040513d6000823e3d601f19601f8201168201806040525081019061214e9190614a76565b90506000816040015183602001516121669190614d01565b905060006015424443886040516020016121839493929190614d56565b6040516020818303038152906040528051906020012060001c6121a69190614da4565b90506000600a8284010390508360600151811061225357600160009054906101000a900473ffffffffffffffffffffffffffffffffffffffff1673ffffffffffffffffffffffffffffffffffffffff16631a9804de88602001516040518263ffffffff1660e01b815260040161221c9190613ebe565b600060405180830381600087803b15801561223657600080fd5b505af115801561224a573d6000803e3d6000fd5b50505050612300565b60008111156122ff57600160009054906101000a900473ffffffffffffffffffffffffffffffffffffffff1673ffffffffffffffffffffffffffffffffffffffff1663265da6d788602001518387606001516122af9190614d01565b6040518363ffffffff1660e01b81526004016122cc929190614dd5565b600060405180830381600087803b1580156122e657600080fd5b505af11580156122fa573d6000803e3d6000fd5b505050505b5b50505050505050565b6000600160009054906101000a900473ffffffffffffffffffffffffffffffffffffffff1673ffffffffffffffffffffffffffffffffffffffff16634025b22d83600001516040518263ffffffff1660e01b815260040161236a9190613ebe565b600060405180830381865afa158015612387573d6000803e3d6000fd5b505050506040513d6000823e3d601f19601f820116820180604052508101906123b09190614a76565b90506014816080015110156123fa576040517f08c379a00000000000000000000000000000000000000000000000000000000081526004016123f190614e4a565b60405180910390fd5b600160009054906101000a900473ffffffffffffffffffffffffffffffffffffffff1673ffffffffffffffffffffffffffffffffffffffff1663ae153e3e83600001516014846080015161244e9190614d01565b6040518363ffffffff1660e01b815260040161246b929190614dd5565b600060405180830381600087803b15801561248557600080fd5b505af1158015612499573d6000803e3d6000fd5b50505050600160009054906101000a900473ffffffffffffffffffffffffffffffffffffffff1673ffffffffffffffffffffffffffffffffffffffff1663265da6d783602001516032600160009054906101000a900473ffffffffffffffffffffffffffffffffffffffff1673ffffffffffffffffffffffffffffffffffffffff16634025b22d87602001516040518263ffffffff1660e01b81526004016125419190613ebe565b600060405180830381865afa15801561255e573d6000803e3d6000fd5b505050506040513d6000823e3d601f19601f820116820180604052508101906125879190614a76565b606001516125959190614562565b6040518363ffffffff1660e01b81526004016125b2929190614dd5565b600060405180830381600087803b1580156125cc57600080fd5b505af11580156125e0573d6000803e3d6000fd5b505050505050565b6000600160009054906101000a900473ffffffffffffffffffffffffffffffffffffffff1673ffffffffffffffffffffffffffffffffffffffff16634025b22d83600001516040518263ffffffff1660e01b81526004016126499190613ebe565b600060405180830381865afa158015612666573d6000803e3d6000fd5b505050506040513d6000823e3d601f19601f8201168201806040525081019061268f9190614a76565b9050600f816080015110156126d9576040517f08c379a00000000000000000000000000000000000000000000000000000000081526004016126d090614e4a565b60405180910390fd5b600160009054906101000a900473ffffffffffffffffffffffffffffffffffffffff1673ffffffffffffffffffffffffffffffffffffffff1663ae153e3e8360000151600f846080015161272d9190614d01565b6040518363ffffffff1660e01b815260040161274a929190614dd5565b600060405180830381600087803b15801561276457600080fd5b505af1158015612778573d6000803e3d6000fd5b50505050600160009054906101000a900473ffffffffffffffffffffffffffffffffffffffff1673ffffffffffffffffffffffffffffffffffffffff1663bd6d618883602001516014600160009054906101000a900473ffffffffffffffffffffffffffffffffffffffff1673ffffffffffffffffffffffffffffffffffffffff16634025b22d87602001516040518263ffffffff1660e01b81526004016128209190613ebe565b600060405180830381865afa15801561283d573d6000803e3d6000fd5b505050506040513d6000823e3d601f19601f820116820180604052508101906128669190614a76565b602001516128749190614562565b6040518363ffffffff1660e01b8152600401612891929190614dd5565b600060405180830381600087803b1580156128ab57600080fd5b505af11580156128bf573d6000803e3d6000fd5b505050505050565b6000600160009054906101000a900473ffffffffffffffffffffffffffffffffffffffff1673ffffffffffffffffffffffffffffffffffffffff16634025b22d83600001516040518263ffffffff1660e01b81526004016129289190613ebe565b600060405180830381865afa158015612945573d6000803e3d6000fd5b505050506040513d6000823e3d601f19601f8201168201806040525081019061296e9190614a76565b9050600f816080015110156129b8576040517f08c379a00000000000000000000000000000000000000000000000000000000081526004016129af90614e4a565b60405180910390fd5b600160009054906101000a900473ffffffffffffffffffffffffffffffffffffffff1673ffffffffffffffffffffffffffffffffffffffff1663ae153e3e8360000151600f8460800151612a0c9190614d01565b6040518363ffffffff1660e01b8152600401612a29929190614dd5565b600060405180830381600087803b158015612a4357600080fd5b505af1158015612a57573d6000803e3d6000fd5b50505050600160009054906101000a900473ffffffffffffffffffffffffffffffffffffffff1673ffffffffffffffffffffffffffffffffffffffff16635caa6cb783602001516014600160009054906101000a900473ffffffffffffffffffffffffffffffffffffffff1673ffffffffffffffffffffffffffffffffffffffff16634025b22d87602001516040518263ffffffff1660e01b8152600401612aff9190613ebe565b600060405180830381865afa158015612b1c573d6000803e3d6000fd5b505050506040513d6000823e3d601f19601f82011682018060405250810190612b459190614a76565b60400151612b539190614562565b6040518363ffffffff1660e01b8152600401612b70929190614dd5565b600060405180830381600087803b158015612b8a57600080fd5b505af1158015612b9e573d6000803e3d6000fd5b505050505050565b6000600160009054906101000a900473ffffffffffffffffffffffffffffffffffffffff1673ffffffffffffffffffffffffffffffffffffffff16634025b22d83600001516040518263ffffffff1660e01b8152600401612c079190613ebe565b600060405180830381865afa158015612c24573d6000803e3d6000fd5b505050506040513d6000823e3d601f19601f82011682018060405250810190612c4d9190614a76565b9050600a81608001511015612c97576040517f08c379a0000000000000000000000000000000000000000000000000000000008152600401612c8e90614e4a565b60405180910390fd5b600160009054906101000a900473ffffffffffffffffffffffffffffffffffffffff1673ffffffffffffffffffffffffffffffffffffffff1663ae153e3e8360000151600a8460800151612ceb9190614d01565b6040518363ffffffff1660e01b8152600401612d08929190614dd5565b600060405180830381600087803b158015612d2257600080fd5b505af1158015612d36573d6000803e3d6000fd5b50505050600160009054906101000a900473ffffffffffffffffffffffffffffffffffffffff1673ffffffffffffffffffffffffffffffffffffffff1663ae153e3e83602001516014600160009054906101000a900473ffffffffffffffffffffffffffffffffffffffff1673ffffffffffffffffffffffffffffffffffffffff16634025b22d87602001516040518263ffffffff1660e01b8152600401612dde9190613ebe565b600060405180830381865afa158015612dfb573d6000803e3d6000fd5b505050506040513d6000823e3d601f19601f82011682018060405250810190612e249190614a76565b60800151612e329190614562565b6040518363ffffffff1660e01b8152600401612e4f929190614dd5565b600060405180830381600087803b158015612e6957600080fd5b505af1158015612e7d573d6000803e3d6000fd5b505050505050565b6000600160009054906101000a900473ffffffffffffffffffffffffffffffffffffffff1673ffffffffffffffffffffffffffffffffffffffff16634025b22d83600001516040518263ffffffff1660e01b8152600401612ee69190613ebe565b600060405180830381865afa158015612f03573d6000803e3d6000fd5b505050506040513d6000823e3d601f19601f82011682018060405250810190612f2c9190614a76565b9050601481608001511015612f76576040517f08c379a0000000000000000000000000000000000000000000000000000000008152600401612f6d90614e4a565b60405180910390fd5b600160009054906101000a900473ffffffffffffffffffffffffffffffffffffffff1673ffffffffffffffffffffffffffffffffffffffff1663ae153e3e836000015160148460800151612fca9190614d01565b6040518363ffffffff1660e01b8152600401612fe7929190614dd5565b600060405180830381600087803b15801561300157600080fd5b505af1158015613015573d6000803e3d6000fd5b50505050600160009054906101000a900473ffffffffffffffffffffffffffffffffffffffff1673ffffffffffffffffffffffffffffffffffffffff1663bd6d61888360200151600f600160009054906101000a900473ffffffffffffffffffffffffffffffffffffffff1673ffffffffffffffffffffffffffffffffffffffff16634025b22d87602001516040518263ffffffff1660e01b81526004016130bd9190613ebe565b600060405180830381865afa1580156130da573d6000803e3d6000fd5b505050506040513d6000823e3d601f19601f820116820180604052508101906131039190614a76565b6020015110156131145760006131ca565b600f600160009054906101000a900473ffffffffffffffffffffffffffffffffffffffff1673ffffffffffffffffffffffffffffffffffffffff16634025b22d87602001516040518263ffffffff1660e01b81526004016131759190613ebe565b600060405180830381865afa158015613192573d6000803e3d6000fd5b505050506040513d6000823e3d601f19601f820116820180604052508101906131bb9190614a76565b602001516131c99190614d01565b5b6040518363ffffffff1660e01b81526004016131e7929190614dd5565b600060405180830381600087803b15801561320157600080fd5b505af1158015613215573d6000803e3d6000fd5b505050505050565b6000600160009054906101000a900473ffffffffffffffffffffffffffffffffffffffff1673ffffffffffffffffffffffffffffffffffffffff16634025b22d83600001516040518263ffffffff1660e01b815260040161327e9190613ebe565b600060405180830381865afa15801561329b573d6000803e3d6000fd5b505050506040513d6000823e3d601f19601f820116820180604052508101906132c49190614a76565b905060148160800151101561330e576040517f08c379a000000000000000000000000000000000000000000000000000000000815260040161330590614e4a565b60405180910390fd5b600160009054906101000a900473ffffffffffffffffffffffffffffffffffffffff1673ffffffffffffffffffffffffffffffffffffffff1663ae153e3e8360000151601484608001516133629190614d01565b6040518363ffffffff1660e01b815260040161337f929190614dd5565b600060405180830381600087803b15801561339957600080fd5b505af11580156133ad573d6000803e3d6000fd5b50505050600160009054906101000a900473ffffffffffffffffffffffffffffffffffffffff1673ffffffffffffffffffffffffffffffffffffffff16635caa6cb78360200151600f600160009054906101000a900473ffffffffffffffffffffffffffffffffffffffff1673ffffffffffffffffffffffffffffffffffffffff16634025b22d87602001516040518263ffffffff1660e01b81526004016134559190613ebe565b600060405180830381865afa158015613472573d6000803e3d6000fd5b505050506040513d6000823e3d601f19601f8201168201806040525081019061349b9190614a76565b6040015110156134ac576000613562565b600f600160009054906101000a900473ffffffffffffffffffffffffffffffffffffffff1673ffffffffffffffffffffffffffffffffffffffff16634025b22d87602001516040518263ffffffff1660e01b815260040161350d9190613ebe565b600060405180830381865afa15801561352a573d6000803e3d6000fd5b505050506040513d6000823e3d601f19601f820116820180604052508101906135539190614a76565b604001516135619190614d01565b5b6040518363ffffffff1660e01b815260040161357f929190614dd5565b600060405180830381600087803b15801561359957600080fd5b505af11580156135ad573d6000803e3d6000fd5b505050505050565b6000600160009054906101000a900473ffffffffffffffffffffffffffffffffffffffff1673ffffffffffffffffffffffffffffffffffffffff16634025b22d84600001516040518263ffffffff1660e01b81526004016136169190613ebe565b600060405180830381865afa158015613633573d6000803e3d6000fd5b505050506040513d6000823e3d601f19601f8201168201806040525081019061365c9190614a76565b9050601e816080015110156136a6576040517f08c379a000000000000000000000000000000000000000000000000000000000815260040161369d90614e4a565b60405180910390fd5b600160009054906101000a900473ffffffffffffffffffffffffffffffffffffffff1673ffffffffffffffffffffffffffffffffffffffff1663ae153e3e8460000151601e84608001516136fa9190614d01565b6040518363ffffffff1660e01b8152600401613717929190614dd5565b600060405180830381600087803b15801561373157600080fd5b505af1158015613745573d6000803e3d6000fd5b505050506000600360008481526020019081526020016000209050613768613c18565b600160028360080160009054906101000a900460ff166137889190614531565b60ff16036137d757816005016003806020026040519081016040528092919082600380156137cb576020028201915b8154815260200190600101908083116137b7575b5050505050905061381a565b81600101600380602002604051908101604052809291908260038015613812576020028201915b8154815260200190600101908083116137fe575b505050505090505b60005b600381101561387f5760006040518060600160405280886000015181526020018484600381106138505761384f6142d3565b5b602002015181526020016001815250905061386b8187611ffe565b50808061387790614368565b91505061381d565b505050505050565b6000600160009054906101000a900473ffffffffffffffffffffffffffffffffffffffff1673ffffffffffffffffffffffffffffffffffffffff16634025b22d84600001516040518263ffffffff1660e01b81526004016138e89190613ebe565b600060405180830381865afa158015613905573d6000803e3d6000fd5b505050506040513d6000823e3d601f19601f8201168201806040525081019061392e9190614a76565b9050601981608001511015613978576040517f08c379a000000000000000000000000000000000000000000000000000000000815260040161396f90614e4a565b60405180910390fd5b600160009054906101000a900473ffffffffffffffffffffffffffffffffffffffff1673ffffffffffffffffffffffffffffffffffffffff1663ae153e3e8460000151601984608001516139cc9190614d01565b6040518363ffffffff1660e01b81526004016139e9929190614dd5565b600060405180830381600087803b158015613a0357600080fd5b505af1158015613a17573d6000803e3d6000fd5b50505050613a258383611ffe565b613a2f8383611ffe565b505050565b6000600160009054906101000a900473ffffffffffffffffffffffffffffffffffffffff1673ffffffffffffffffffffffffffffffffffffffff16634025b22d83600001516040518263ffffffff1660e01b8152600401613a959190613ebe565b600060405180830381865afa158015613ab2573d6000803e3d6000fd5b505050506040513d6000823e3d601f19601f82011682018060405250810190613adb9190614a76565b9050600160009054906101000a900473ffffffffffffffffffffffffffffffffffffffff1673ffffffffffffffffffffffffffffffffffffffff1663265da6d78360000151601e8460800151613b319190614562565b6040518363ffffffff1660e01b8152600401613b4e929190614dd5565b600060405180830381600087803b158015613b6857600080fd5b505af1158015613b7c573d6000803e3d6000fd5b505050505050565b600033905090565b50600081556001016000815560010160009055565b6040518060c00160405280600073ffffffffffffffffffffffffffffffffffffffff168152602001613bd1613c18565b8152602001600073ffffffffffffffffffffffffffffffffffffffff168152602001613bfb613c18565b8152602001600060ff168152602001600063ffffffff1681525090565b6040518060600160405280600390602082028036833780820191505090505090565b8260038101928215613c69579160200282015b82811115613c68578251825591602001919060010190613c4d565b5b509050613c769190613c7a565b5090565b5b80821115613c93576000816000905550600101613c7b565b5090565b6000604051905090565b600080fd5b600080fd5b6000819050919050565b613cbe81613cab565b8114613cc957600080fd5b50565b600081359050613cdb81613cb5565b92915050565b600060208284031215613cf757613cf6613ca1565b5b6000613d0584828501613ccc565b91505092915050565b600073ffffffffffffffffffffffffffffffffffffffff82169050919050565b6000613d3982613d0e565b9050919050565b613d4981613d2e565b8114613d5457600080fd5b50565b600081359050613d6681613d40565b92915050565b600080fd5b600080fd5b600080fd5b60008083601f840112613d9157613d90613d6c565b5b8235905067ffffffffffffffff811115613dae57613dad613d71565b5b602083019150836001820283011115613dca57613dc9613d76565b5b9250929050565b600080600080600060808688031215613ded57613dec613ca1565b5b6000613dfb88828901613d57565b9550506020613e0c88828901613d57565b9450506040613e1d88828901613ccc565b935050606086013567ffffffffffffffff811115613e3e57613e3d613ca6565b5b613e4a88828901613d7b565b92509250509295509295909350565b60007fffffffff0000000000000000000000000000000000000000000000000000000082169050919050565b613e8e81613e59565b82525050565b6000602082019050613ea96000830184613e85565b92915050565b613eb881613cab565b82525050565b6000602082019050613ed36000830184613eaf565b92915050565b613ee281613d2e565b82525050565b6000602082019050613efd6000830184613ed9565b92915050565b613f0c81613d2e565b82525050565b600060039050919050565b600081905092915050565b6000819050919050565b613f3b81613cab565b82525050565b6000613f4d8383613f32565b60208301905092915050565b6000602082019050919050565b613f6f81613f12565b613f798184613f1d565b9250613f8482613f28565b8060005b83811015613fb5578151613f9c8782613f41565b9650613fa783613f59565b925050600181019050613f88565b505050505050565b600060ff82169050919050565b613fd381613fbd565b82525050565b600063ffffffff82169050919050565b613ff281613fd9565b82525050565b6101408201600082015161400f6000850182613f03565b5060208201516140226020850182613f66565b5060408201516140356080850182613f03565b50606082015161404860a0850182613f66565b50608082015161405c610100850182613fca565b5060a0820151614070610120850182613fe9565b50505050565b60006101408201905061408c6000830184613ff8565b92915050565b600061409d82613d2e565b9050919050565b6140ad81614092565b81146140b857600080fd5b50565b6000813590506140ca816140a4565b92915050565b6000602082840312156140e6576140e5613ca1565b5b60006140f4848285016140bb565b91505092915050565b60008190508260606003028201111561411957614118613d76565b5b92915050565b600080610140838503121561413757614136613ca1565b5b600061414585828601613ccc565b9250506020614156858286016140fd565b9150509250929050565b6000819050919050565b600061418561418061417b84613d0e565b614160565b613d0e565b9050919050565b60006141978261416a565b9050919050565b60006141a98261418c565b9050919050565b6141b98161419e565b82525050565b60006020820190506141d460008301846141b0565b92915050565b6000819050826020600302820111156141f6576141f5613d76565b5b92915050565b60006060828403121561421257614211613ca1565b5b6000614220848285016141da565b91505092915050565b60006020828403121561423f5761423e613ca1565b5b600061424d84828501613d57565b91505092915050565b600082825260208201905092915050565b7f4d61746368206e6f74206f766572000000000000000000000000000000000000600082015250565b600061429d600e83614256565b91506142a882614267565b602082019050919050565b600060208201905081810360008301526142cc81614290565b9050919050565b7f4e487b7100000000000000000000000000000000000000000000000000000000600052603260045260246000fd5b60006060820190506143176000830186613ed9565b6143246020830185613ed9565b6143316040830184613eaf565b949350505050565b7f4e487b7100000000000000000000000000000000000000000000000000000000600052601160045260246000fd5b600061437382613cab565b91507fffffffffffffffffffffffffffffffffffffffffffffffffffffffffffffffff82036143a5576143a4614339565b5b600182019050919050565b60006143bb82613fd9565b91506143c683613fd9565b9250828203905063ffffffff8111156143e2576143e1614339565b5b92915050565b7f4974206973206e6f7420796f7572207475726e2e000000000000000000000000600082015250565b600061441e601483614256565b9150614429826143e8565b602082019050919050565b6000602082019050818103600083015261444d81614411565b9050919050565b600061445f82613cab565b915061446a83613cab565b925082820261447881613cab565b9150828204841483151761448f5761448e614339565b5b5092915050565b7f6e6f7420706c6179696e67000000000000000000000000000000000000000000600082015250565b60006144cc600b83614256565b91506144d782614496565b602082019050919050565b600060208201905081810360008301526144fb816144bf565b9050919050565b7f4e487b7100000000000000000000000000000000000000000000000000000000600052601260045260246000fd5b600061453c82613fbd565b915061454783613fbd565b92508261455757614556614502565b5b828206905092915050565b600061456d82613cab565b915061457883613cab565b92508282019050808211156145905761458f614339565b5b92915050565b7f4561636820736869702063616e206f6e6c792062652075736564206f6e63652060008201527f706572207475726e2e0000000000000000000000000000000000000000000000602082015250565b60006145f2602983614256565b91506145fd82614596565b604082019050919050565b60006020820190508181036000830152614621816145e5565b9050919050565b7f5468652073686970206973206e6f742070617274206f6620796f75722074656160008201527f6d2e000000000000000000000000000000000000000000000000000000000000602082015250565b6000614684602283614256565b915061468f82614628565b604082019050919050565b600060208201905081810360008301526146b381614677565b9050919050565b7f546865207461726765742073686970206973206e6f742070617274206f66207460008201527f6865206f70706f6e656e742773207465616d2e00000000000000000000000000602082015250565b6000614716603383614256565b9150614721826146ba565b604082019050919050565b6000602082019050818103600083015261474581614709565b9050919050565b600080fd5b6000601f19601f8301169050919050565b7f4e487b7100000000000000000000000000000000000000000000000000000000600052604160045260246000fd5b61479a82614751565b810181811067ffffffffffffffff821117156147b9576147b8614762565b5b80604052505050565b60006147cc613c97565b90506147d88282614791565b919050565b600080fd5b6000606082840312156147f8576147f761474c565b5b61480260606147c2565b9050600061481284828501613ccc565b600083015250602061482684828501613ccc565b602083015250604061483a84828501613ccc565b60408301525092915050565b60006060828403121561485c5761485b613ca1565b5b600061486a848285016147e2565b91505092915050565b600080fd5b600067ffffffffffffffff82111561489357614892614762565b5b61489c82614751565b9050602081019050919050565b60005b838110156148c75780820151818401526020810190506148ac565b60008484015250505050565b60006148e66148e184614878565b6147c2565b90508281526020810184848401111561490257614901614873565b5b61490d8482856148a9565b509392505050565b600082601f83011261492a57614929613d6c565b5b815161493a8482602086016148d3565b91505092915050565b60008151905061495281613cb5565b92915050565b60008115159050919050565b61496d81614958565b811461497857600080fd5b50565b60008151905061498a81614964565b92915050565b600061010082840312156149a7576149a661474c565b5b6149b26101006147c2565b9050600082015167ffffffffffffffff8111156149d2576149d16147dd565b5b6149de84828501614915565b60008301525060206149f284828501614943565b6020830152506040614a0684828501614943565b6040830152506060614a1a84828501614943565b6060830152506080614a2e84828501614943565b60808301525060a0614a4284828501614943565b60a08301525060c0614a5684828501614943565b60c08301525060e0614a6a8482850161497b565b60e08301525092915050565b600060208284031215614a8c57614a8b613ca1565b5b600082015167ffffffffffffffff811115614aaa57614aa9613ca6565b5b614ab684828501614990565b91505092915050565b7f496e76616c6964207370656369616c2031000000000000000000000000000000600082015250565b6000614af5601183614256565b9150614b0082614abf565b602082019050919050565b60006020820190508181036000830152614b2481614ae8565b9050919050565b7f496e76616c6964207370656369616c2032000000000000000000000000000000600082015250565b6000614b61601183614256565b9150614b6c82614b2b565b602082019050919050565b60006020820190508181036000830152614b9081614b54565b9050919050565b7f496e76616c696420616374696f6e2e0000000000000000000000000000000000600082015250565b6000614bcd600f83614256565b9150614bd882614b97565b602082019050919050565b60006020820190508181036000830152614bfc81614bc0565b9050919050565b7f4f776e61626c653a206e6577206f776e657220697320746865207a65726f206160008201527f6464726573730000000000000000000000000000000000000000000000000000602082015250565b6000614c5f602683614256565b9150614c6a82614c03565b604082019050919050565b60006020820190508181036000830152614c8e81614c52565b9050919050565b7f4f776e61626c653a2063616c6c6572206973206e6f7420746865206f776e6572600082015250565b6000614ccb602083614256565b9150614cd682614c95565b602082019050919050565b60006020820190508181036000830152614cfa81614cbe565b9050919050565b6000614d0c82613cab565b9150614d1783613cab565b9250828203905081811115614d2f57614d2e614339565b5b92915050565b6000819050919050565b614d50614d4b82613cab565b614d35565b82525050565b6000614d628287614d3f565b602082019150614d728286614d3f565b602082019150614d828285614d3f565b602082019150614d928284614d3f565b60208201915081905095945050505050565b6000614daf82613cab565b9150614dba83613cab565b925082614dca57614dc9614502565b5b828206905092915050565b6000604082019050614dea6000830185613eaf565b614df76020830184613eaf565b9392505050565b7f4e6f7420656e6f75676820656e65726779000000000000000000000000000000600082015250565b6000614e34601183614256565b9150614e3f82614dfe565b602082019050919050565b60006020820190508181036000830152614e6381614e27565b905091905056fea2646970667358221220d5bb3aa069f4f6307d27bb95d3c6df2714bd4065f04fe6534c280dc99678f01e64736f6c63430008130033",
  "linkReferences": {},
  "deployedLinkReferences": {}
}